{
  "_format": "hh3-artifact-1",
  "contractName": "Counter",
  "sourceName": "contracts/Counter.sol",
  "abi": [
    {
      "anonymous": false,
      "inputs": [
        {
          "indexed": false,
          "internalType": "uint256",
          "name": "by",
          "type": "uint256"
        }
      ],
      "name": "Increment",
      "type": "event"
    },
    {
      "inputs": [],
      "name": "inc",
      "outputs": [],
      "stateMutability": "nonpayable",
      "type": "function"
    },
    {
      "inputs": [
        {
          "internalType": "uint256",
          "name": "by",
          "type": "uint256"
        }
      ],
      "name": "incBy",
      "outputs": [],
      "stateMutability": "nonpayable",
      "type": "function"
    },
    {
      "inputs": [],
      "name": "version",
      "outputs": [
        {
          "internalType": "string",
          "name": "",
          "type": "string"
        }
      ],
      "stateMutability": "pure",
      "type": "function"
    },
    {
      "inputs": [],
      "name": "x",
      "outputs": [
        {
          "internalType": "uint256",
          "name": "",
          "type": "uint256"
        }
      ],
      "stateMutability": "view",
      "type": "function"
    }
  ],
  "bytecode": "0x6080604052348015600e575f5ffd5b506104b58061001c5f395ff3fe608060405234801561000f575f5ffd5b506004361061004a575f3560e01c80630c55699c1461004e578063371303c01461006c57806354fd4d501461007657806370119d0614610094575b5f5ffd5b6100566100b0565b60405161006391906101ed565b60405180910390f35b6100746100b5565b005b61007e610105565b60405161008b9190610276565b60405180910390f35b6100ae60048036038101906100a991906102c4565b610142565b005b5f5481565b5f5f8154809291906100c69061031c565b91905055507f51af157c2eee40f68107a47a49c32fbbeb0a3c9e5cd37aa56e88e6be92368a8160016040516100fb91906103a5565b60405180910390a1565b60606040518060400160405280600581526020017f312e302e30000000000000000000000000000000000000000000000000000000815250905090565b5f8111610184576040517f08c379a000000000000000000000000000000000000000000000000000000000815260040161017b9061042e565b60405180910390fd5b805f5f828254610194919061044c565b925050819055507f51af157c2eee40f68107a47a49c32fbbeb0a3c9e5cd37aa56e88e6be92368a81816040516101ca91906101ed565b60405180910390a150565b5f819050919050565b6101e7816101d5565b82525050565b5f6020820190506102005f8301846101de565b92915050565b5f81519050919050565b5f82825260208201905092915050565b8281835e5f83830152505050565b5f601f19601f8301169050919050565b5f61024882610206565b6102528185610210565b9350610262818560208601610220565b61026b8161022e565b840191505092915050565b5f6020820190508181035f83015261028e818461023e565b905092915050565b5f5ffd5b6102a3816101d5565b81146102ad575f5ffd5b50565b5f813590506102be8161029a565b92915050565b5f602082840312156102d9576102d8610296565b5b5f6102e6848285016102b0565b91505092915050565b7f4e487b71000000000000000000000000000000000000000000000000000000005f52601160045260245ffd5b5f610326826101d5565b91507fffffffffffffffffffffffffffffffffffffffffffffffffffffffffffffffff8203610358576103576102ef565b5b600182019050919050565b5f819050919050565b5f819050919050565b5f61038f61038a61038584610363565b61036c565b6101d5565b9050919050565b61039f81610375565b82525050565b5f6020820190506103b85f830184610396565b92915050565b7f696e6342793a20696e6372656d656e742073686f756c6420626520706f7369745f8201527f6976650000000000000000000000000000000000000000000000000000000000602082015250565b5f610418602383610210565b9150610423826103be565b604082019050919050565b5f6020820190508181035f8301526104458161040c565b9050919050565b5f610456826101d5565b9150610461836101d5565b9250828201905080821115610479576104786102ef565b5b9291505056fea26469706673582212202644ecb9734655663ccf7b3f24dd6f5a1ed49f6b35d0e8066aa3d92030bf544c64736f6c634300081c0033",
  "linkReferences": {},
  "deployedLinkReferences": {},
  "immutableReferences": {},
  "inputSourceName": "project/contracts/Counter.sol",
  "buildInfoId": "solc-0_8_28-ced0f5036798b26e9e26bcede66e14b0a3093845"
}