{
  "_format": "hh3-artifact-1",
  "contractName": "CounterV2",
  "sourceName": "contracts/CounterV2.sol",
  "abi": [
    {
      "anonymous": false,
      "inputs": [
        {
          "indexed": false,
          "internalType": "uint256",
          "name": "by",
          "type": "uint256"
        }
      ],
      "name": "Increment",
      "type": "event"
    },
    {
      "anonymous": false,
      "inputs": [
        {
          "indexed": false,
          "internalType": "uint256",
          "name": "by",
          "type": "uint256"
        }
      ],
      "name": "Square",
      "type": "event"
    },
    {
      "inputs": [],
      "name": "inc",
      "outputs": [],
      "stateMutability": "nonpayable",
      "type": "function"
    },
    {
      "inputs": [
        {
          "internalType": "uint256",
          "name": "by",
          "type": "uint256"
        }
      ],
      "name": "incBy",
      "outputs": [],
      "stateMutability": "nonpayable",
      "type": "function"
    },
    {
      "inputs": [],
      "name": "name",
      "outputs": [
        {
          "internalType": "string",
          "name": "",
          "type": "string"
        }
      ],
      "stateMutability": "view",
      "type": "function"
    },
    {
      "inputs": [
        {
          "internalType": "string",
          "name": "_name",
          "type": "string"
        }
      ],
      "name": "setName",
      "outputs": [],
      "stateMutability": "nonpayable",
      "type": "function"
    },
    {
      "inputs": [],
      "name": "square",
      "outputs": [],
      "stateMutability": "nonpayable",
      "type": "function"
    },
    {
      "inputs": [],
      "name": "version",
      "outputs": [
        {
          "internalType": "string",
          "name": "",
          "type": "string"
        }
      ],
      "stateMutability": "pure",
      "type": "function"
    },
    {
      "inputs": [],
      "name": "x",
      "outputs": [
        {
          "internalType": "uint256",
          "name": "",
          "type": "uint256"
        }
      ],
      "stateMutability": "view",
      "type": "function"
    }
  ],
  "bytecode": "0x6080604052348015600e575f5ffd5b50610a9a8061001c5f395ff3fe608060405234801561000f575f5ffd5b506004361061007b575f3560e01c806354fd4d501161005957806354fd4d50146100c557806370119d06146100e3578063c47f0027146100ff578063d742cb011461011b5761007b565b806306fdde031461007f5780630c55699c1461009d578063371303c0146100bb575b5f5ffd5b610087610125565b60405161009491906103a6565b60405180910390f35b6100a56101b1565b6040516100b291906103de565b60405180910390f35b6100c36101b6565b005b6100cd610206565b6040516100da91906103a6565b60405180910390f35b6100fd60048036038101906100f89190610432565b610243565b005b61011960048036038101906101149190610589565b6102d6565b005b6101236102e9565b005b60018054610132906105fd565b80601f016020809104026020016040519081016040528092919081815260200182805461015e906105fd565b80156101a95780601f10610180576101008083540402835291602001916101a9565b820191905f5260205f20905b81548152906001019060200180831161018c57829003601f168201915b505050505081565b5f5481565b5f5f8154809291906101c79061065a565b91905055507f51af157c2eee40f68107a47a49c32fbbeb0a3c9e5cd37aa56e88e6be92368a8160016040516101fc91906106e3565b60405180910390a1565b60606040518060400160405280600581526020017f322e302e30000000000000000000000000000000000000000000000000000000815250905090565b5f8111610285576040517f08c379a000000000000000000000000000000000000000000000000000000000815260040161027c9061076c565b60405180910390fd5b805f5f828254610295919061078a565b925050819055507f51af157c2eee40f68107a47a49c32fbbeb0a3c9e5cd37aa56e88e6be92368a81816040516102cb91906103de565b60405180910390a150565b80600190816102e59190610954565b5050565b5f545f546102f79190610a23565b5f819055507f41b5039f314bafe1ec94f33c095c480fbffd58bcee88218e570d2da1045df6935f5460405161032c91906103de565b60405180910390a1565b5f81519050919050565b5f82825260208201905092915050565b8281835e5f83830152505050565b5f601f19601f8301169050919050565b5f61037882610336565b6103828185610340565b9350610392818560208601610350565b61039b8161035e565b840191505092915050565b5f6020820190508181035f8301526103be818461036e565b905092915050565b5f819050919050565b6103d8816103c6565b82525050565b5f6020820190506103f15f8301846103cf565b92915050565b5f604051905090565b5f5ffd5b5f5ffd5b610411816103c6565b811461041b575f5ffd5b50565b5f8135905061042c81610408565b92915050565b5f6020828403121561044757610446610400565b5b5f6104548482850161041e565b91505092915050565b5f5ffd5b5f5ffd5b7f4e487b71000000000000000000000000000000000000000000000000000000005f52604160045260245ffd5b61049b8261035e565b810181811067ffffffffffffffff821117156104ba576104b9610465565b5b80604052505050565b5f6104cc6103f7565b90506104d88282610492565b919050565b5f67ffffffffffffffff8211156104f7576104f6610465565b5b6105008261035e565b9050602081019050919050565b828183375f83830152505050565b5f61052d610528846104dd565b6104c3565b90508281526020810184848401111561054957610548610461565b5b61055484828561050d565b509392505050565b5f82601f8301126105705761056f61045d565b5b813561058084826020860161051b565b91505092915050565b5f6020828403121561059e5761059d610400565b5b5f82013567ffffffffffffffff8111156105bb576105ba610404565b5b6105c78482850161055c565b91505092915050565b7f4e487b71000000000000000000000000000000000000000000000000000000005f52602260045260245ffd5b5f600282049050600182168061061457607f821691505b602082108103610627576106266105d0565b5b50919050565b7f4e487b71000000000000000000000000000000000000000000000000000000005f52601160045260245ffd5b5f610664826103c6565b91507fffffffffffffffffffffffffffffffffffffffffffffffffffffffffffffffff82036106965761069561062d565b5b600182019050919050565b5f819050919050565b5f819050919050565b5f6106cd6106c86106c3846106a1565b6106aa565b6103c6565b9050919050565b6106dd816106b3565b82525050565b5f6020820190506106f65f8301846106d4565b92915050565b7f696e6342793a20696e6372656d656e742073686f756c6420626520706f7369745f8201527f6976650000000000000000000000000000000000000000000000000000000000602082015250565b5f610756602383610340565b9150610761826106fc565b604082019050919050565b5f6020820190508181035f8301526107838161074a565b9050919050565b5f610794826103c6565b915061079f836103c6565b92508282019050808211156107b7576107b661062d565b5b92915050565b5f819050815f5260205f209050919050565b5f6020601f8301049050919050565b5f82821b905092915050565b5f600883026108197fffffffffffffffffffffffffffffffffffffffffffffffffffffffffffffffff826107de565b61082386836107de565b95508019841693508086168417925050509392505050565b5f61085561085061084b846103c6565b6106aa565b6103c6565b9050919050565b5f819050919050565b61086e8361083b565b61088261087a8261085c565b8484546107ea565b825550505050565b5f5f905090565b61089961088a565b6108a4818484610865565b505050565b5b818110156108c7576108bc5f82610891565b6001810190506108aa565b5050565b601f82111561090c576108dd816107bd565b6108e6846107cf565b810160208510156108f5578190505b610909610901856107cf565b8301826108a9565b50505b505050565b5f82821c905092915050565b5f61092c5f1984600802610911565b1980831691505092915050565b5f610944838361091d565b9150826002028217905092915050565b61095d82610336565b67ffffffffffffffff81111561097657610975610465565b5b61098082546105fd565b61098b8282856108cb565b5f60209050601f8311600181146109bc575f84156109aa578287015190505b6109b48582610939565b865550610a1b565b601f1984166109ca866107bd565b5f5b828110156109f1578489015182556001820191506020850194506020810190506109cc565b86831015610a0e5784890151610a0a601f89168261091d565b8355505b6001600288020188555050505b505050505050565b5f610a2d826103c6565b9150610a38836103c6565b9250828202610a46816103c6565b91508282048414831517610a5d57610a5c61062d565b5b509291505056fea264697066735822122033fa6d582e8cda67b43fdb0925b47f6b07b5103171bee826ea5ae7dbdd19526f64736f6c634300081c0033",
  "linkReferences": {},
  "deployedLinkReferences": {},
  "immutableReferences": {},
  "inputSourceName": "project/contracts/CounterV2.sol",
  "buildInfoId": "solc-0_8_28-38d9eb7bc7c5efc475e36e431ba812feef5f9c1a"
}